:100000000C9470010C9498010C9498010C94980134
:100010000C9498010C9498010C9498010C949801FC
:100020000C9498010C9498010C948B070C9408087C
:100030000C9498010C9498010C9498010C949801DC
:100040000C9498010C9498010C9498010C949801CC
:100050000C9498010C9498010C9498010C943A0A11
:100060000C9498010C9498010C9498010C949801AC
:100070000C9498010C9498010C9498010C9498019C
:100080000C9498010C9498010C9498010C9498018C
:100090000C9498010C9498010C9498010C9498017C
:1000A0000C9498010C9498010C9498014E414E497F
:1000B0004E495459494E46CDCCCC3D0AD7233C1726
:1000C000B7D13877CC2B329595E6241FB14F0A0073
:1000D0000020410000C84200401C4620BCBE4CCA63
:1000E0001B0E5AAEC59D7400407A10F35A00A072E0
:1000F0004E18090010A5D4E80000E8764817000063
:10010000E40B54020000CA9A3B000000E1F5050030
:100110000080969800000040420F000000A0860179
:10012000000000102700000000E803000000006449
:1001300000000000000A00000000000100000000B4
:10014000002C76D888DC674F0823DFC1DFAE59E189
:10015000B1B796E5E3E453C63AE651997696E8E6F8
:10016000C28426EB898C9B62ED407C6FFCEFBC9CCB
:100170009F40F2BAA56FA5F490055A2AF75C936BDD
:100180006CF9676DC11BFCE0E40D47FEF520E6B598
:1001900000D0ED902E0300943577050080841E0872
:1001A0000000204E0A000000C80C333333330F9890
:1001B0006E12831141EF8D2114893BE65516CFFE57
:1001C000E6DB18D1844B381BF77C1D901DA4BBE4E3
:1001D00024203284725E228100C9F124ECA1E53D25
:1001E00027070605040100080A0B0C0D0900000092
:1001F00000240027002A002D003000000000002508
:100200000028002B002E0031000404040404030421
:1002100005020202020403020202020606060606A4
:100220000604040202020404040802011040804093
:10023000102040804080080204018040201002010C
:10024000108010204040200000000200090F000034
:10025000030401000C00000000000000000000008A
:10026000000000000000080B000202020000090468
:100270000000010202000005240010010524010114
:10028000010424020605240600010705810310006D
:100290004009040100020A000000070502024000B4
:1002A0000007058302400000040309041201000254
:1002B000EF02014041233680000101020301417237
:1002C0006475696E6F204C4C430041726475696EB1
:1002D0006F204C656F6E6172646F0000B70AD80FB3
:1002E00011241FBECFEFDAE0DEBFCDBF22E0ACEAC3
:1002F000B1E001C01D92AA38B207E1F711E0A0E019
:10030000B1E0E6E0F1E302C005900D92AC3AB1072E
:10031000D9F711E0CFE6D1E004C02197FE010E9499
:100320006216CE36D107C9F70E94DD0A0C94761802
:100330000C940000FC0180912102882311F13FB749
:10034000F89482E08093E9002091F200822F90E0FF
:100350001816190614F481E090E0882339F02898E3
:1003600044E6409320024091F1004083222339F07B
:100370002091F200211103C02BE62093E8003FBF3B
:1003800008958FEF9FEF089583E08093E9008091B7
:10039000F200882319F08AE38093E80008952FB7CC
:1003A000F89483E08093E9009091E800892F8072AF
:1003B00095FF04C09091F20080E4891B2FBF08953F
:1003C0008091180281110DC082E08093140284E0B4
:1003D00080931502109217021092160281E080930A
:1003E000180284E192E008950C94C40108954091AC
:1003F000B7015091B8012091B5013091B601421773
:100400005307B4F49091E8009570E1F39091E800FF
:1004100092FD19C08093F1008091B7019091B801CD
:1004200001968F739927892B19F48EEF8093E8003A
:100430008091B7019091B80101969093B801809393
:10044000B70181E0089580E00895EF92FF920F9345
:100450001F93CF93DF93F82E192FE62E042F81E000
:10046000860F880F0E94F70183E00E94F701CF2DCD
:10047000D12FEC0EFD2EF11CCE15DF05B9F007FFD4
:1004800013C0FE0184910E94F701182F80E00E94A2
:10049000F701812321968111EFCFDF91CF911F9139
:1004A0000F91FF90EF9008958881EDCF81E0F5CF17
:1004B000DF92EF92FF920F931F93CF93DF93D82E8B
:1004C0008A01EB017B01E40EF51ECE15DF0559F024
:1004D000D7FE12C0FE0184910E94F701219681117E
:1004E000F4CF0FEF1FEFC801DF91CF911F910F9154
:1004F000FF90EF90DF9008958881EECF0F931F93C8
:10050000CF93DF931F92CDB7DEB782E0898342E4B9
:1005100050E066E672E080E80E9458020E94E00126
:10052000DC0112960D911C910115110589F0D8017D
:10053000ED91FC910280F381E02DBE016F5F7F4F52
:10054000C801099597FD04C0F80100851185ECCF1D
:1005500089810F90DF91CF911F910F910895615084
:1005600030F02091F100FC0120830196F8CF28980B
:1005700084E6809320020895CF93DF931F92CDB736
:10058000DEB76983DC01ED91FC910280F381E02DFF
:1005900041E050E0BE016F5F7F4F09950F90DF9102
:1005A000CF9108950E94CF0190E00895CF93DF93FB
:1005B0001F92CDB7DEB7FC018485958597FD08C0F5
:1005C0002FEF3FEF358724870F90DF91CF9108956C
:1005D000CE0101960E949A01019719F4898190E059
:1005E000F3CF8FEF9FEFF0CF0F931F93CF93DF9356
:1005F0001F92CDB7DEB78C01FC018485958597FFEE
:100600000BC0CE0101960E949A01019771F4898175
:1006100090E0F80195878487F801848595850F908F
:10062000DF91CF911F910F9108958FEF9FEFF1CF41
:10063000FC018485958597FD0BC09FB7F89482E0F7
:100640008093E9008091F2009FBF90E001960895A9
:100650009FB7F89482E08093E9008091F2009FBFF9
:1006600090E00895282F30E0F901E95BFD4F949167
:10067000F901E85DFD4F8491275F3D4FF901249119
:10068000222309F430C09923E9F091509F30D0F42F
:10069000E92FF0E0E25BFC4F0C9462167C038003D0
:1006A0005D037403780362036203620383038903B7
:1006B0008D039103970362039B03909180009F77C2
:1006C00090938000E22FF0E0EE0FFF1FE550FE4F09
:1006D000A591B4919FB7F894EC91611132C08095C7
:1006E0008E238C939FBF0895909180009F7DE8CFCB
:1006F00090918000977FE4CF94B59F7794BDE2CF2F
:1007000094B59F7DFBCF909190009F779093900040
:10071000D9CF909190009F7DF9CF90919000977FD5
:10072000F5CF9091C0009F779093C000CBCF909170
:10073000C0009F7DF9CF9091C200977F9093C20037
:10074000C1CF8E2BCECF282F30E0F901E85DFD4FD1
:100750009491F901E75FFD4F4491442399F050E0F3
:10076000440F551FFA01E351FE4FA591B491FA01D0
:10077000E550FE4F459154914FB7F894EC91E92B19
:10078000EC934FBF6115710519F460E00C943203CE
:100790006F3F710511F461E0F9CFF901E95BFD4F9D
:1007A000E491E150EF3008F07CC0F0E0E652FC4FFD
:1007B0000C946216E903EE03F303FD0307045104EE
:1007C0005104510411041B0425042F043C0451045A
:1007D000440484B5806884BD67BD089584B5806293
:1007E00084BD68BD089580918000806880938000FA
:1007F00070938900609388000895809180008062E2
:100800008093800070938B0060938A00089580919C
:10081000800088608093800070938D0060938C00CE
:100820000895809190008068809390007093990063
:10083000609398000895809190008062809390006A
:1008400070939B0060939A00089580919000886057
:100850008093900070939D0060939C000895809118
:10086000C00080688093C0008091C0008F7B80931F
:10087000C0006093CF0008958091C0008062809393
:10088000C0006093D00008958091C200886080937A
:10089000C2008091C2008B7F8093C2006093D2001F
:1008A0000895603871050CF076CF6FCF3FB7F8949C
:1008B0008091B1019091B201A091B301B091B401C6
:1008C00026B5A89B05C02F3F19F00196A11DB11DAB
:1008D0003FBFBA2FA92F982F8827BC01CD01620FE7
:1008E000711D811D911D42E0660F771F881F991FA2
:1008F0004A95D1F708958F929F92AF92BF92CF926F
:10090000DF92EF92FF924B015C010E9456046B0153
:100910007C010E9456046C197D098E099F09683E6E
:10092000734081059105A8F321E0821A9108A1087E
:10093000B10888EEC80E83E0D81EE11CF11C8114BA
:100940009104A104B10429F7FF90EF90DF90CF90BC
:10095000BF90AF909F908F9008958F929F92AF928B
:10096000BF92CF92DF92EF92FF920F931F93CF939C
:10097000DF936C017B018A0180910C01882309F4CB
:100980005CC080912102882309F457C08091BB018B
:1009900080FF05C08091E00082608093E000E80164
:1009A000B12C8AEFA82E93E0892E2AE3922E20976D
:1009B00011F4BB20D9F10E94CF0181110AC0AA9481
:1009C000AA20D9F161E070E080E090E00E947B0411
:1009D000EECF8C171D0611F00CF08C2F9FB7F894FA
:1009E0008092E9002091E80025FD02C09FBFDFCF83
:1009F000282F30E0C21BD30BF701815020F041912A
:100A00004093F100FACFE20EF31EBB2021F090924A
:100A1000E800B12CEBCF8091E80085FDE7CF909204
:100A2000E800BB24B394209709F3F3CF5D9884E6E4
:100A30008093BA01101611063CF081E090E0F601B7
:100A40009383828310E000E0C801DF91CF911F9172
:100A50000F91FF90EF90DF90CF90BF90AF909F905D
:100A60008F900895CF93DF93FC014481558160817D
:100A7000718182E292E00E94AD04EC0142E050E01C
:100A800068E371E082E292E00E94AD048C0F9D1F4A
:100A9000DF91CF9108952FB7F8946091AD017091D7
:100AA000AE018091AF019091B0012FBF0895CF9218
:100AB000DF92EF92FF926B017C0120E030E048EC86
:100AC00052E40E94AE1387FF2FC020E030E0A9015E
:100AD000C701B6010E94AE1387FF03C0C12CD12C01
:100AE0007601C0920A02D0920B02E0920C02F092C0
:100AF0000D0220910D0130910E0140910F01509196
:100B00001001C701B6010E94141420E030E048EC47
:100B100052E40E9493150E94051685E0FF90EF9025
:100B2000DF90CF900C94A303C12CD12C88ECE82E3D
:100B300082E4F82ED6CFCF92DF92EF92FF926B0134
:100B40007C0120E030E048EC52E40E94AE1387FFC5
:100B50002FC020E030E0A901C701B6010E94AE130A
:100B600087FF03C0C12CD12C7601C0920E02D09217
:100B70000F02E0921002F0921102209111013091C7
:100B800012014091130150911401C701B6010E9456
:100B9000141420E030E048EC52E40E9493150E94C7
:100BA000051683E0FF90EF90DF90CF900C94A303A5
:100BB000C12CD12C88ECE82E82E4F82ED6CF0C94F0
:100BC0003205CF92DF92EF92FF920F931F93CF9354
:100BD000DF93CAE0D0E0C12CD12C76018C010F51FB
:100BE0001E4FF801849120917B00982F990F990F47
:100BF00090722F7D922B90937B0020910401F0E462
:100C00002F9F900111248770822B80937C0080910C
:100C10007A00806480937A0080917A0086FDFCCF10
:100C20008091780060917900762F682F072E000C54
:100C3000880B990B0E94B51320E030E045EA5EE393
:100C40000E94141420E030E048E452E40E9426158B
:100C50009B01AC01C701B6010E9427156B017C0105
:100C6000219709F0BECF20E030E040E251E40E943D
:100C70009315DF91CF911F910F91FF90EF90DF902F
:100C8000CF9008952091760230917702232B39F48A
:100C900021E0FC018081882361F020E00AC0BC01D2
:100CA00080917202909173020E94661821E0892B54
:100CB000A1F7822F0895CF93DF93EC01888199816A
:100CC000009711F00E940417198218821D821C825D
:100CD0001B821A82DF91CF910895FC01808191815E
:100CE000009711F00C9404170895AF92BF92CF9221
:100CF000DF92EF92FF920F931F93CF93DF93DC016C
:100D0000CD90DC901197C114D10439F01496CD9197
:100D1000DC918C017601209761F4DF91CF911F91D6
:100D20000F91FF90EF90DF90CF90BF90AF9008951C
:100D300075015701BFEFAB1ABB0AF7018081082E7E
:100D4000000C990B0E948D13892B91F72197CC0DE4
:100D5000DD1D8881082E000C990B0E948D13892BB4
:100D600029F0CE15DF0510F02197F3CFAE014F5FCC
:100D70005F4F4E195F09D80115965C934E931497F7
:100D8000CE14DF0420F4B701C6010E945218D80126
:100D9000ED91FC91119714968D919C91E80FF91F9C
:100DA0001082BBCF0F931F93CF93DF93EC01888109
:100DB0009981009759F02A813B812617370730F037
:100DC00081E0DF91CF911F910F9108958B016F5FAB
:100DD0007F4F0E948D17009759F0998388831B835A
:100DE0000A832C813D81232B59F7FC011082E8CF27
:100DF00080E0E7CFEF92FF920F931F93CF93DF93A3
:100E0000EC017B018A01BA010E94D20681110BC05C
:100E1000CE010E945B06CE01DF91CF911F910F9111
:100E2000FF90EF9008951D830C83B701888199810D
:100E30000E946F18F0CFFB0101900020E9F7319775
:100E4000AF01461B570B0C94FA06FC01118210826D
:100E50001382128215821482FB0101900020E9F7AF
:100E60003197AF01461B570B0C94FA06EF92FF9295
:100E70000F931F93CF93DF93CDB7DEB7A1970FB634
:100E8000F894DEBF0FBECDBF7C01CB01BA01F701E4
:100E900011821082138212821582148242E0420F64
:100EA0008E010F5F1F4F0E94E40F009789F0BC0175
:100EB000C7010E941B07A1960FB6F894DEBF0FBEB4
:100EC000CDBFDF91CF911F910F91FF90EF900895CB
:100ED000C7010E945B06EFCFCF93DF9300D000D015
:100EE00000D0CDB7DEB7AB01BC0123E0CE01019647
:100EF0000E943607CE0101960E943205CE0101966E
:100F00000E946D0626960FB6F894DEBF0FBECDBFC9
:100F1000DF91CF9108951F920F920FB60F92112477
:100F20002F933F934F935F936F937F938F939F93F1
:100F3000AF93BF93CF93EF93FF93C091E100809164
:100F4000E100837F8093E100C3FF0FC01092E900AE
:100F500081E08093EB001092EC0082E38093ED003F
:100F60001092210288E08093F000C2FF1AC00E9414
:100F7000C4018091BA01882341F08091BA01815067
:100F80008093BA01811101C05D9A8091200288236B
:100F900041F080912002815080932002811101C094
:100FA000289AC4FF23C08091E2008E7E81608093E6
:100FB000E2008091E1008F7E8093E1008091BB018F
:100FC0008E7E80618093BB01FF91EF91CF91BF91A5
:100FD000AF919F918F917F916F915F914F913F91D1
:100FE0002F910F900FBE0F901F901895C0FFECCF60
:100FF0008091E2008E7E80618093E2008091E1002A
:101000008E7E8093E1008091BB018E7E8160DACF7D
:101010001F920F920FB60F921124CF92DF92EF9290
:10102000FF920F931F932F933F934F935F936F9371
:101030007F938F939F93AF93BF93EF93FF93CF9340
:10104000DF93CDB7DEB76C97DEBFCDBF1092E9005E
:101050008091E80083FF25C068E0CE0145960E949C
:10106000AF0282EF8093E8008D8987FF39C09091AD
:10107000E80090FFFCCF982F907609F034C19E894C
:101080004F89588D2F89F88C911131C0803861F5C6
:101090008091BC018093F1001092F1008EEF80935B
:1010A000E8006C960FB6F894DEBF0FBECDBFDF919F
:1010B000CF91FF91EF91BF91AF919F918F917F91D0
:1010C0006F915F914F913F912F911F910F91FF90E1
:1010D000EF90DF90CF900F900FBE0F901F9018955C
:1010E0009EEF9093E800C7CF1092F100D5CF9130DA
:1010F00059F48111D3CF4130510581F68091BC0163
:101100008D7F8093BC01CACF933049F48111C6CF43
:101110004130510519F68091BC018260F2CF9530C3
:1011200041F48091E80080FFFCCF20682093E30029
:10113000B5CF963009F0A9C00B8D1C8D22E010921E
:10114000E9001092B8011092B701F2122EC010926D
:10115000B6011092B5010E947E021F8299E0998328
:10116000FA8291E09E8390EA98879AEF998720917E
:10117000B7013091B801275F3F4F3C832B838D83AC
:101180001092E9001092B8011092B7011093B601C5
:101190000093B50149E050E0BE016F5F7F4F80E0F2
:1011A0000E9458020E947E0279CF1093B6010093EC
:1011B000B5010E94E001DC0112960D911C91011510
:1011C000110509F451C1D801ED91FC910480F5811C
:1011D000E02DBE016B5E7F4FC8010995009709F0B5
:1011E0003EC1F80100851185EACFF3E0FF120EC081
:1011F0008F89882309F440C0823061F440E860E1BF
:101200008AEC92E00E942502811148CF81E280930E
:10121000EB0047CF813029F440E86BE08EEB92E0A1
:10122000F1CF833099F70E94E001DC011296ED9036
:10123000FC908E010F5F1F4F6801E114F10479F0FB
:10124000D701ED91FC910680F781E02DB801C7012F
:101250000995080F111DF701E084F184EECFD80144
:101260001C92F60101900020E9F73197BF016C193B
:101270007D0940E0C601C6CF68EA72E0FB014491F7
:1012800050E080E80E94580209CF973009F4BECFA1
:10129000983021F481E08093F10000CF993009F07B
:1012A000FDCE837009F0B2CFE0E2F1E081E031E001
:1012B00096E32191222371F08093E9003093EB00B3
:1012C000DF0111972C912093EC009093ED008F5F3C
:1012D000873079F78EE78093EA001092EA008F89D1
:1012E00080932102DBCE8B8D9C8D1092E9001092B1
:1012F000B8011092B7019093B6018093B501898D22
:10130000811192C08E899D89913A49F4813209F008
:101310007DCF47E050E065E071E080E0B3CF9132EF
:1013200009F074CF833269F48F89988DB0E0A0E022
:101330008093000190930101A0930201B0930301F7
:10134000ADCE803269F48091E80082FFFCCF67E087
:1013500085E091E00E94AF028BEF8093E8009ECE83
:10136000823209F09BCE8F8980930C01EEEFFFE76C
:10137000859194918B3F9C4D51F1E0E0F8E0809194
:10138000050190910601A0910701B0910801803BF1
:101390009440A105B105F1F480910C0180FD1AC0C3
:1013A000EE3F8AE0F80789F587E797E79183808326
:1013B000809160008093B90188E19BE00FB6F894BA
:1013C000A895809360000FBE9093600067CEEEEF0B
:1013D000FAE0D5CF808191818737974709F05ECEBB
:1013E000A895809160008861809360008091B90128
:1013F00080936000EE3F2AE0F20789F08091FE0AB8
:101400009091FF0A9183808349CE808191818737B3
:10141000980751F29093FF0A8093FE0AC5CF10926D
:10142000FF0A1092FE0A3ACE0E94E001DC011296F9
:101430000D911C910115110509F4E8CED801ED912B
:10144000FC910190F081E02DBE016B5E7F4FC801E1
:101450000995811123CEF80100851185EBCF18166F
:1014600019060CF41BCED2CEF1E0FF12BECE6CEA10
:1014700072E004CF1F920F920FB60F9211242F9398
:101480003F938F939F93AF93BF938091AD019091C2
:10149000AE01A091AF01B091B0013091AC0123E059
:1014A000230F2D3758F50196A11DB11D2093AC01D6
:1014B0008093AD019093AE01A093AF01B093B001C2
:1014C0008091B1019091B201A091B301B091B401AA
:1014D0000196A11DB11D8093B1019093B201A0931B
:1014E000B301B093B401BF91AF919F918F913F91A0
:1014F0002F910F900FBE0F901F90189526E8230F85
:101500000296A11DB11DD2CFEF92FF920F931F93B0
:10151000CF93DF93EC01FB01E080F180E114F10453
:1015200011F10481158101151105A9F08C819D81AE
:10153000080F191FB801CE010E94D206882399F026
:10154000288139818C819D81B701820F931F0E9470
:101550006F181D830C83CE01DF91CF911F910F91E6
:10156000FF90EF900895CE010E945B06F4CFE2E277
:10157000F2E01382128288EE93E0A0E0B0E0848370
:101580009583A683B7838AE291E0918380838FEF6E
:101590009FEF958784876BE371E08EE792E00E946E
:1015A000250762E571E088E792E00E9425076AE37B
:1015B00071E082E792E00C942507CF93DF93CDB7DB
:1015C000DEB76C970FB6F894DEBF0FBECDBF789430
:1015D00084B5826084BD84B5816084BD85B5826038
:1015E00085BD85B5816085BD80916E0081608093E9
:1015F0006E00109281008091810082608093810052
:101600008091810081608093810080918000816061
:1016100080938000809191008260809391008091FE
:10162000910081608093910080919000816080930F
:1016300090008091C10084608093C1008091C100BE
:1016400082608093C1008091C10081608093C1005D
:101650008091C30081608093C3008091C00082604C
:101660008093C0008091C20081608093C20080910D
:101670007A00846080937A0080917A0082608093FF
:101680007A0080917A00816080937A0080917A005C
:10169000806880937A00109221021092BC0110920F
:1016A000BB018091D70081608093D70080EA80934E
:1016B000D80089B5806189BD89B5826089BD09B4CA
:1016C00000FEFDCF61E070E080E090E00E947B04CE
:1016D0008091D8008F7C80618093D8008091E00059
:1016E000807F8093E0008091E1008E7E8093E10016
:1016F0008DE08093E200559A209A10920401109197
:101700000C016AE070E080E090E00E947B0411230D
:10171000B1F38FEF9FEF90932F0280932E020E94E0
:10172000C40160E070E0CB010E949B0560E070E0C6
:10173000CB010E9457050E944B0568517C4F8F4F8B
:101740009F4F60930402709305028093060290936A
:1017500007028E010F5F1F4F60ED862E67E0962E09
:10176000A12CB12C44244394512C50E0252E50E060
:10177000352EE0900C016AE070E080E090E00E947D
:101780007B04F090FF01EE2049F182E292E00E949A
:1017900018031816190614F5F11023C082E292E01E
:1017A0000E94D6028D309105A9F08A30910591F002
:1017B0002091BD013091BE01203431055CF4F90166
:1017C000E154FE4F80832F5F3F4F3093BE01209343
:1017D000BD01CFCF21E02093FF01CBCFFF2009F443
:1017E000E9C06FEB71E0CE0107960E9425078B855B
:1017F0009C85892B61F0CF80D88460E270E0C601BF
:101800000E945B187C01EC18FD08892B19F4EE246A
:10181000EA94FE2C6AE371E0C8010E9425078B85DB
:101820009C850097D1F067018E159F0508F46C0127
:10183000EF81F885EC0DFD1D708010826F81788539
:10184000C8016115710509F442C00E941B078F8110
:101850009885C80ED91ED6017C9280917202909113
:1018600073020097C9F169817A816115710591F15F
:1018700040917402509175022D813E8142175307A9
:1018800048F10E946F188D819E819093770280931A
:1018900076021E821D82C8010E946D0682E792E0D8
:1018A0000E947506C0907202D0907302C114D104D8
:1018B00051F1F60181916F01882329F1082E000C66
:1018C000990B0E944A18F60131978083F2CF0E944B
:1018D0005B06BDCF0E94041789819A8190937302A1
:1018E000809372028B819C81909375028093740225
:1018F0008D819E8190937702809376021A8219825D
:101900001C821B82C6CFFFEFEF1AFF0ACB84DC8458
:10191000CE14DF0428F09C2D8D2D6701E92EF82EC2
:101920006AE371E0C8010E9425076B847C84C614B9
:10193000D704D8F4E614F70408F43701EF81F885EA
:10194000E60DF71DF08010826F8178856C0D7D1D8E
:10195000C8016115710509F443C00E941B078F81FE
:101960009885680E791ED301FC92C8010E94750605
:1019700089819A810097B9F10E9402106093000258
:10198000709301028093020290930302EFEBF1E067
:1019900080E4DF011D928A95E9F71092BE01109252
:1019A000BD011092FF01C8010E946D06CE0107968D
:1019B0000E946D0688E591E00E9442068823B9F0F6
:1019C00060E070E0CB010E949B0560E070E0CB011D
:1019D0000E9457056AE571E0C8010E94250748C0CA
:1019E0000E945B06BCCF60E070E0CB01C7CF80E611
:1019F00091E00E944206882309F448C00E944B05EA
:101A0000605F784D8F4F9F4F609304027093050283
:101A10008093060290930702C0900002D0900102CA
:101A2000E0900202F090030220E030E048EC52E443
:101A3000C701B6010E943B1618160CF120E030E0F9
:101A4000A901C701B6010E94AE1387FF03C0C12CD4
:101A5000D12C7601C0921501D0921601E0921701A7
:101A6000F092180122E0B701A601C8010E943607D2
:101A7000C8010E94DF05C8010E946D068AC0C12C02
:101A8000D12C28ECE22E22E4F22EE4CF84E691E081
:101A90000E944206882371F1C0900002D09001029A
:101AA000E0900202F090030220E030E04FE753E4C0
:101AB000C701B6010E943B161816ACF020E030E0DA
:101AC000A901C701B6010E94AE1387FF03C0C12C54
:101AD000D12C7601C0921101D0921201E092130133
:101AE000F0921401BFCFC12CD12C9FE7E92E93E4D3
:101AF000F92EF0CF87E691E00E944206882371F12B
:101B0000C0900002D0900102E0900202F090030227
:101B100020E030E04FE753E4C701B6010E943B16D6
:101B20001816ACF020E030E0A901C701B6010E9410
:101B3000AE1387FF03C0C12CD12C7601C0920D01DA
:101B4000D0920E01E0920F01F09210018BCFC12CC8
:101B5000D12C8FE7E82E83E4F82EF0CF8AE691E0CF
:101B60000E944206882309F483C0609100027091AC
:101B7000010280910202909103020E949B056091F4
:101B80000E0270910F0280911002909111020E943A
:101B90006C070E94C4016AE371E082E792E00E9450
:101BA0001B0790E080E00E94E10520E030E048E47F
:101BB00052E40E943B1618160CF0B3C15092090271
:101BC00040920802509213024092120220E030E04C
:101BD000A90160910E0270910F0280911002909104
:101BE00011020E943B1618167CF020E030E0A9019B
:101BF00060910A0270910B0280910C0290910D028B
:101C00000E943B16181634F482E090E09093130281
:101C10008093120280910802909109021816190609
:101C20004CF4809112029091130202969093130249
:101C3000809312020E944B05C0900402D0900502CE
:101C4000E0900602F09007026C157D058E059F0559
:101C500008F079C16091150170911601809117010A
:101C6000909118010E94051689E00E94A30375C196
:101C70008DE691E00E944206882301F16091000206
:101C80007091010280910202909103020E949B05D3
:101C900080910E0290910F02A0911002B09111025A
:101CA000898F9A8FAB8FBC8F44E050E0BE01675E96
:101CB0007F4F82E292E00E94AD046BCF81E791E01A
:101CC0000E944206882399F06091000270910102FF
:101CD00080910202909103020E94570560910A02CE
:101CE00070910B0280910C0290910D0250CF84E70D
:101CF00091E00E9442068823E1F060910002709119
:101D0000010280910202909103020E949B05809142
:101D10000A0290910B02A0910C02B0910D028D8BE2
:101D20009E8BAF8BB88F44E050E0BE016B5E7F4F5F
:101D3000C0CF88E791E00E944206811120CF8BE757
:101D400091E00E9442068111C9CF8EE791E00E9486
:101D500042068823B9F090E080E00E94E1050E94ED
:101D60006C0782E090E00E94E1050E946C076091A0
:101D70000E0270910F0280911002909111020E9448
:101D80006C07ACCF83E891E00E944206882329F0DB
:101D900090E080E00E94E105FACE86E891E00E94A2
:101DA0004206882371F090E080E00E94E105698B93
:101DB0007A8B8B8B9C8B44E050E0BE016F5E7F4F33
:101DC00078CF8AE891E00E944206882319F082E0E9
:101DD00090E0E0CF8DE891E00E944206882371F008
:101DE00082E090E00E94E1056D877E878F87988B67
:101DF00044E050E0BE01635F7F4F5BCF81E991E03B
:101E00000E944206882309F452C065E971E0CE01C0
:101E100007960E94250768E772E0CE0107960E94A8
:101E2000840A7C01FC01C480D580FFEFCF1ADF0A51
:101E3000B6010E94D2068823B1F1D7012D913C91C1
:101E4000119714968D919C9163EA71E0820F931F14
:101E50000E946F18F701D582C4826EE772E0C70155
:101E60000E94840A1A8219821C821B821E821D8291
:101E70000817190769F0DC016D917C9111976115C4
:101E8000710531F014964D915C91C8010E94FA06DB
:101E9000C8010E94DF05C8010E946D06CE010796A9
:101EA0000E946D0676CEC7010E945B06D6CF85EAFA
:101EB00091E00E944206882369F060E070E0CB0167
:101EC0000E949B0560E070E0CB010E94570567EA25
:101ED00071E082CD8091760290917702892B09F48E
:101EE00058CE60E070E0CB010E949B0560E070E09E
:101EF000CB010E9457051A8219821C821B821E8206
:101F00001D8260917202709173026115710509F46E
:101F1000AFCD4091760250917702C8010E94FA0637
:101F2000A7CD82E090E00E94E10520E030E048E4A7
:101F300052E40E943B1618160CF440CE109209028F
:101F4000109208023FCE80911202909113028230CB
:101F50009105D1F04CF4019729F12114310409F4D1
:101F600008CC0E940000FECB8330910581F00497DD
:101F7000A1F70E944B05A50194010E944016693EFD
:101F800073408105910570F06CE370E06DCE0E94A6
:101F90004B05A50194010E944016693E73408105DE
:101FA000910518F063E070E05FCE70E060E05CCE19
:101FB00082E792E00E946D0688E792E00E946D063B
:101FC0008EE792E00C946D06EF920F931F93CF93E0
:101FD000DF93E80134E047FD34E1042E000C550B9B
:101FE00057FF03C0519541955109E32E022F242F2D
:101FF000AE010E940610CE01DF91CF911F910F918B
:10200000EF900895662777270C946511A9E0B0E05A
:10201000ECE0F0E10C94E6146A01F22EB02E102FE1
:10202000FBE3AF2EA01608F41BE31F5F012F27E090
:10203000AE014F5F5F4F0E94B512BC018981982F9E
:102040009970913009F43FC09BE2E1FC04C09E2DE1
:102050009170E0FC3AC05E2D5071E82FE87083FF6C
:1020600046C084E0911101C083E0EF2DE81B8F157D
:1020700008F0E0E0D6018E2F20E2552351F199239C
:1020800029F0D6019C93C60101966C0196012D5F43
:102090003F4FE2FE24C08EE4D6018C9391E411966A
:1020A0009C93119712968C93D9018E2F90E28111F7
:1020B0001BC0E20FF32FF11D10828EEF9FEF2996C8
:1020C000ECE00C9402159DE2C6CF90E2C4CF2D93B4
:1020D00081508111FCCFCE0ED11CE0E0D0CF8EE636
:1020E000D6018C9391E6DBCF9D938150E0CF482FB2
:1020F000447082FF3DC084E0911101C083E08F15E0
:1021000010F4EF2DE81BD6018E2F20E2552309F1A4
:10211000992329F0D6019C93C60101966C01960182
:102120002D5F3F4FE2FE1BC089E4D6018C938EE405
:1021300011968C93119786E412968C93D9018E2F69
:1021400090E2882309F4B5CF9D938150FACF2D9367
:1021500081508111FCCFCE0ED11CE0E0D9CF89E6B1
:10216000D6018C938EE611968C93119786E6E4CF78
:102170009B0177FF02C030E020E0A1E0B0E09111C8
:1021800002C0B0E0A0E0F9013196AE0FBF1F8B2C6A
:10219000912CBB2009F461C05401EFEFAE1ABE0AC6
:1021A000AA0DBB1DFA161B0619F014F04F2D4A1B81
:1021B000511188C0E3FC59C07601A42FB0E2A111EF
:1021C0004FC0C40ED11C992309F45BC040E0D60176
:1021D0001196F60190836D01552309F448C0012F33
:1021E000060F9A81582F507184FF03C0913309F470
:1021F000015010160CF047C0093008F008E0EEE27C
:10220000FE2E5B01A01AB10885019194819491087A
:102210002F3F320729F4D601FC92F60131966F0167
:102220006217730794F1021713077CF5DB01A21BF9
:10223000B30BAA24A394B12CAC0EBD1EAA0DBB1DDA
:1022400011968C9121503109D60111962815390526
:10225000F4F0F60180836D01DBCFB12CA12CA0CF6F
:10226000F701B1937F01A150AACF9111B0CFD60150
:10227000942F50E302C05D9391509111FCCFC40E96
:10228000D11C40E0ACCF01E0BACF80E3DBCF6217D6
:10229000730731F4963388F4953311F4552369F0BC
:1022A000F6018083FD01842F90E2811108C0A40F04
:1022B000B11D1C9290E080E002CF81E3F1CF9193B9
:1022C0008150F3CF911183CF8ACFB0E0A0E0EBE64D
:1022D000F1E10C94E6145C017B016115710519F0C4
:1022E000DB018D939C9385010F5F1F4FF501D0811A
:1022F0008D2F90E00E948D136C01892BB9F5DD3292
:10230000B9F50F5F1F4FD5011196DC91C1E058015F
:10231000F1E0AF1AB10843E050E064EB70E0C501B2
:102320000E949613892B69F5680182E0C80ED11CC2
:1023300045E050E06FEA70E0C6010E949613892BD9
:1023400021F4680197E0C90ED11CE114F10419F0E1
:10235000D701CD92DC9260E070E080E89FEFC11180
:10236000FFC060E070E080E89FE7FAC05801BBCF93
:10237000DB3229F485010E5F1F4FF501D181C0E0EA
:10238000C6CF43E050E06CEA70E0C5010E949613AE
:10239000892BE9F0F80110E000E020E030E0A9012D
:1023A0005F01B0ED8B2E8D0E89E08815C8F19C2E53
:1023B000689491F88C2F8870C2FF16C0811102C0FA
:1023C0000F5F1F4F3196D501DC91C92DE9CFE11484
:1023D000F10429F00E5F1F4FF7011183008360E0C5
:1023E00070E080EC9FE7BCC0882311F00150110918
:1023F000A5E0B0E00E94D5149B01AC01220F331F71
:10240000441F551F280D311D411D511D283999E9C3
:102410003907490799E15907A8F2C6609C2ED2CF27
:10242000AEEF8A1206C0C3FD3CC09C2E689493F8A0
:10243000C9CFDF7DD534A9F580818D3239F4C061F3
:10244000DF011296818162E070E006C0DF018B320D
:10245000C1F3119661E070E080535D01A61AB70ADE
:102460008A30F8F4E0E8CE16ECE0DE065CF4B60163
:10247000660F771F660F771FC60ED71ECC0CDD1CAC
:10248000C80ED11C5D01FFEFAF1ABF0A8C918053BB
:102490008A30A8F1C4FF03C0D194C194D1080C0DB7
:1024A0001D1DC1FF09C0E114F10431F081E0A81A3B
:1024B000B108D701AD92BC92CA01B9010E94B31311
:1024C000C370C33009F490584B015C0120E030E048
:1024D000A9010E94AE13882309F440C0C3EED0E0E6
:1024E00017FF05C0119501951109CBECD0E06E01E5
:1024F000B8E1CB1AD10880E2E82EF12C0FC0D5014B
:10250000B1CFFE0125913591459154910E191F09C6
:10251000C501B4010E9414144B015C01D501C40132
:102520000E151F0574F72497F594E794CC16DD0675
:10253000A9F78A2F880F8B2F881F8F3F49F020E043
:1025400030E0A901C501B4010E94AE13811106C09B
:1025500082E290E09093850280938402C501B401E9
:10256000CDB7DEB7ECE00C940215283008F027E078
:102570003327DA01990F311D87FD916000966105BF
:10258000710539F432602E5F3D9330E32A95E1F70F
:1025900008959F3F30F080387105610509F03C5F78
:1025A0003C5F3D93913008F08068911DDF93CF939D
:1025B0001F930F93FF92EF92192F987F9695E92F13
:1025C00096959695E90FFF27EF5BFE4F99273327E6
:1025D000EE24FF24A701E70105900894079428F44E
:1025E000360FE71EF81E491F511D660F771F881F03
:1025F000991F0694A1F70590079428F4E70EF81E9A
:10260000491F561FC11D770F881F991F661F06940B
:10261000A1F70590079428F4F80E491F561FC71F0D
:10262000D11D880F991F661F771F0694A1F705908B
:10263000079420F4490F561FC71FD81F990F661F14
:10264000771F881F0694A9F784911095177041F0A1
:10265000D695C79557954795F794E7941A95C1F77E
:10266000E7EEF0E06894159015913591659195919C
:1026700005907FE27395E118F10A430B560BC90BE5
:10268000D009C0F7E10CF11E431F561FC91FD01D12
:102690007EF4703311F48A95E6CFE894015030F05F
:1026A000080F0AF40027021708F4202F2395022FA1
:1026B0007A3328F079E37D932A95E9F710C07D936A
:1026C0002A9589F6069497956795379517951794E7
:1026D000E118F10A430B560BC90BD00998F023956A
:1026E0007E9173957A3308F070E37C932013B8F7EA
:1026F0007E9170617D9330F0839571E37D9370E3FB
:102700002A95E1F71124EF90FF900F911F91CF913F
:10271000DF91992787FD9095089591110C9481146C
:10272000803219F089508550C8F70895FB01DC010B
:102730004150504088F08D9181341CF08B350CF461
:10274000805E659161341CF06B350CF4605E861B15
:10275000611171F3990B0895881BFCCF0E94F0134F
:1027600008F481E00895E89409C097FB3EF4909541
:102770008095709561957F4F8F4F9F4F9923A9F05A
:10278000F92F96E9BB279395F695879577956795E9
:10279000B795F111F8CFFAF4BB0F11F460FF1BC02D
:1027A0006F5F7F4F8F4F9F4F16C0882311F096E9C0
:1027B00011C0772321F09EE8872F762F05C066236E
:1027C00071F096E8862F70E060E02AF09A95660F27
:1027D000771F881FDAF7880F9695879597F90895E0
:1027E000990F0008550FAA0BE0E8FEEF1616170622
:1027F000E807F907C0F012161306E407F50798F08A
:10280000621B730B840B950B39F40A2661F0232BA2
:10281000242B252B21F408950A2609F4A140A6951E
:102820008FEF811D811D08950E9427140C949B1425
:102830000E948D1438F00E94941420F0952311F01A
:102840000C9484140C948A1411240C94CF140E94B8
:10285000AC1470F3959FC1F3950F50E0551F629F24
:10286000F001729FBB27F00DB11D639FAA27F00DE9
:10287000B11DAA1F649F6627B00DA11D661F829F10
:102880002227B00DA11D621F739FB00DA11D621FF5
:10289000839FA00D611D221F749F3327A00D611D12
:1028A000231F849F600D211D822F762F6A2F1124F4
:1028B0009F5750409AF0F1F088234AF0EE0FFF1F27
:1028C000BB1F661F771F881F91505040A9F79E3F7E
:1028D000510580F00C9484140C94CF145F3FE4F302
:1028E000983ED4F3869577956795B795F795E795D4
:1028F0009F5FC1F7FE2B880F911D9695879597F9DD
:10290000089599278827089597F99F6780E870E0D0
:1029100060E008959FEF80EC089500240A94161655
:10292000170618060906089500240A9412161306BD
:10293000140605060895092E0394000C11F488234B
:1029400052F0BB0F40F4BF2B11F460FF04C06F5F67
:102950007F4F8F4F9F4F089557FD9058440F551F3D
:1029600059F05F3F71F04795880F97FB991F61F011
:102970009F3F79F087950895121613061406551F88
:10298000F2CF4695F1DF08C0161617061806991FF4
:10299000F1CF86957105610508940895E894BB27E9
:1029A00066277727CB0197F908950E941715A59FF1
:1029B000900DB49F900DA49F800D911D112408953A
:1029C0002F923F924F925F926F927F928F929F923F
:1029D000AF92BF92CF92DF92EF92FF920F931F932D
:1029E000CF93DF93CDB7DEB7CA1BDB0B0FB6F894DE
:1029F000DEBF0FBECDBF09942A88398848885F841E
:102A00006E847D848C849B84AA84B984C884DF808E
:102A1000EE80FD800C811B81AA81B981CE0FD11D72
:102A20000FB6F894DEBF0FBECDBFED010895A29F93
:102A3000B001B39FC001A39F700D811D1124911D92
:102A4000B29F700D811D1124911D08955058BB2710
:102A5000AA270E943E150C949B140E948D1438F0F6
:102A60000E94941420F039F49F3F19F426F40C943A
:102A70008A140EF4E095E7FB0C948414E92F0E946D
:102A8000AC1458F3BA17620773078407950720F050
:102A900079F4A6F50C94CE140EF4E0950B2EBA2F13
:102AA000A02D0B01B90190010C01CA01A001112454
:102AB000FF27591B99F0593F50F4503E68F11A1600
:102AC000F040A22F232F342F4427585FF3CF469591
:102AD00037952795A795F0405395C9F77EF41F16B3
:102AE000BA0B620B730B840BBAF09150A1F0FF0F7D
:102AF000BB1F661F771F881FC2F70EC0BA0F621F69
:102B0000731F841F48F4879577956795B795F79558
:102B10009E3F08F0B0CF9395880F08F09927EE0FED
:102B20009795879508950E94A7150C949B140E9471
:102B3000941458F00E948D1440F029F45F3F29F05E
:102B40000C94841451110C94CF140C948A140E9488
:102B5000AC1468F39923B1F3552391F3951B550BEE
:102B6000BB27AA2762177307840738F09F5F5F4F60
:102B7000220F331F441FAA1FA9F335D00E2E3AF09F
:102B8000E0E832D091505040E695001CCAF72BD0B7
:102B9000FE2F29D0660F771F881FBB1F2617370708
:102BA0004807AB07B0E809F0BB0B802DBF01FF273A
:102BB00093585F4F3AF09E3F510578F00C9484147F
:102BC0000C94CF145F3FE4F3983ED4F38695779549
:102BD0006795B795F7959F5FC9F7880F911D9695F3
:102BE000879597F90895E1E0660F771F881FBB1F4F
:102BF000621773078407BA0720F0621B730B840BFC
:102C0000BA0BEE1F88F7E09508950E940C166894A1
:102C1000B1110C94CF1408950E94B41488F09F57FA
:102C200098F0B92F9927B751B0F0E1F0660F771FF0
:102C3000881F991F1AF0BA95C9F714C0B13091F0E6
:102C40000E94CE14B1E008950C94CE14672F782F13
:102C50008827B85F39F0B93FCCF3869577956795AB
:102C6000B395D9F73EF490958095709561957F4F17
:102C70008F4F9F4F08950E94F01308F48FEF08952F
:102C8000A1E21A2EAA1BBB1BFD010DC0AA1FBB1F70
:102C9000EE1FFF1FA217B307E407F50720F0A21BE2
:102CA000B30BE40BF50B661F771F881F991F1A944F
:102CB00069F760957095809590959B01AC01BD0179
:102CC000CF010895EE0FFF1F0590F491E02D0994B8
:102CD0000F931F93CF93DF938230910510F482E01E
:102CE00090E0E0918802F091890230E020E0B0E0CD
:102CF000A0E0309799F42115310509F44AC0281B4A
:102D0000390B24303105D8F58A819B816115710515
:102D100089F1FB0193838283FE0111C040815181BF
:102D20000281138148175907E0F04817590799F4B1
:102D3000109761F012960C93129713961C9332968B
:102D4000CF01DF91CF911F910F91089500938802D9
:102D500010938902F4CF2115310551F04217530722
:102D600038F0A901DB019A01BD01DF01F801C1CFF3
:102D7000EF01F9CF9093890280938802CDCFFE01B5
:102D8000E20FF31F819391932250310939832883F5
:102D9000D7CF2091860230918702232B41F42091D6
:102DA0001B0130911C0130938702209386022091F1
:102DB000190130911A012115310541F42DB73EB7A3
:102DC00040911D0150911E01241B350BE09186029C
:102DD000F0918702E217F307A0F42E1B3F0B281790
:102DE000390778F0AC014E5F5F4F2417350748F084
:102DF0004E0F5F1F509387024093860281939193F9
:102E00009FCFF0E0E0E09CCFCF93DF930097E9F015
:102E1000FC01329713821282A0918802B09189023C
:102E2000ED0130E020E01097A1F420813181820F84
:102E3000931F20918602309187022817390709F0E5
:102E400061C0F0938702E0938602DF91CF910895ED
:102E5000EA01CE17DF07E8F54A815B819E01411543
:102E60005105B1F7E901FB83EA8349915991C40FF8
:102E7000D51FEC17FD0761F4808191810296840FC4
:102E8000951FE90199838883828193819B838A833B
:102E9000F0E0E0E012968D919C9113970097B9F5C0
:102EA0002D913C911197CD010296820F931F209195
:102EB0008602309187022817390739F6309751F585
:102EC0001092890210928802B0938702A093860222
:102ED000BCCFD383C28340815181840F951FC81713
:102EE000D90761F44E5F5F4F88819981480F591F60
:102EF000518340838A819B8193838283211531058D
:102F000009F0B0CFF0938902E09388029ECFFD01D3
:102F1000DC01C0CF13821282D7CFB0E0A0E0E3E99A
:102F2000F7E10C94E2148C01009751F4CB010E945C
:102F300068168C01C801CDB7DEB7E0E10C94FE1431
:102F4000FC01E60FF71F9C0122503109E217F3073D
:102F500008F49DC0D901CD91DC911197C617D70710
:102F600098F0C530D10530F3CE0104978617970746
:102F700008F3C61BD70B2297C193D1936D937C9313
:102F8000CF010E940417D6CF5B01AC1ABD0A4C01D9
:102F90008C0E9D1EA0918802B0918902512C412C6B
:102FA000F12CE12C109731F58091860290918702E7
:102FB0008815990509F05CC04616570608F058C0F8
:102FC0008091190190911A01009741F48DB79EB735
:102FD00040911D0150911E01841B950BE817F907C4
:102FE00008F055C0F0938702E0938602F9017183DF
:102FF0006083A0CF8D919C91119712966C9012973F
:1030000013967C901397A815B90559F56C0142E009
:10301000C40ED11CCA14DB0420F1AC014A195B09AF
:10302000DA011296159780F0628273825183408391
:10303000D9016D937C93E114F10471F0D7011396DB
:10304000FC93EE93129776CF22968C0F9D1FF90179
:1030500091838083F301EFCFF0938902E09388029C
:1030600069CF4816590608F42C017D01D3019ACF87
:10307000CB010E9468167C01009749F0AE01B801AF
:103080000E945218C8010E940417870153CF10E014
:1030900000E050CF9111089581568A5108F4805272
:1030A00085580895FB01DC0102C001900D9241504A
:1030B0005040D8F70895FC018191861721F08823AC
:1030C000D9F7992708953197CF010895FB01DC01C5
:1030D0008D91019080190110D9F3990B0895FB018E
:1030E000DC0101900D920020E1F7089511E0CFE698
:1030F000D1E004C0FE010E9462162196C037D107BC
:06310000C9F7F894FFCFAF
:10310600FFFFFFFF0100E10000000000000000C813
:1031160042000048430000C84200008A02800000C6
:10312600C1808100000000000000BC02AD04D20294
:10313600F4011803D602F4020D0A0041726475699F
:103146006E6F204C656F6E6172646F2F4D6963728E
:103156006F00332E302E30004100537461727400BC
:103166004C4544005031005032005131005131423B
:103176000051320051324200523100523200534364
:10318600414E005431005431420054320054324210
:10319600005645520054434C6162204669726D7771
:0C31A6006172652000580053746F7000C7
:00000001FF
